{
  "_format": "hh-sol-artifact-1",
  "contractName": "MyEpicNFT",
  "sourceName": "contracts/MyEpicNFT.sol",
  "abi": [
    {
      "inputs": [
        {
          "internalType": "string[]",
          "name": "characterNames",
          "type": "string[]"
        },
        {
          "internalType": "string[]",
          "name": "characterImageURIs",
          "type": "string[]"
        },
        {
          "internalType": "uint256[]",
          "name": "characterHp",
          "type": "uint256[]"
        },
        {
          "internalType": "uint256[]",
          "name": "characterAttackDmgx",
          "type": "uint256[]"
        }
      ],
      "stateMutability": "nonpayable",
      "type": "constructor"
    },
    {
      "anonymous": false,
      "inputs": [
        {
          "indexed": true,
          "internalType": "address",
          "name": "owner",
          "type": "address"
        },
        {
          "indexed": true,
          "internalType": "address",
          "name": "approved",
          "type": "address"
        },
        {
          "indexed": true,
          "internalType": "uint256",
          "name": "tokenId",
          "type": "uint256"
        }
      ],
      "name": "Approval",
      "type": "event"
    },
    {
      "anonymous": false,
      "inputs": [
        {
          "indexed": true,
          "internalType": "address",
          "name": "owner",
          "type": "address"
        },
        {
          "indexed": true,
          "internalType": "address",
          "name": "operator",
          "type": "address"
        },
        {
          "indexed": false,
          "internalType": "bool",
          "name": "approved",
          "type": "bool"
        }
      ],
      "name": "ApprovalForAll",
      "type": "event"
    },
    {
      "anonymous": false,
      "inputs": [
        {
          "indexed": true,
          "internalType": "address",
          "name": "from",
          "type": "address"
        },
        {
          "indexed": true,
          "internalType": "address",
          "name": "to",
          "type": "address"
        },
        {
          "indexed": true,
          "internalType": "uint256",
          "name": "tokenId",
          "type": "uint256"
        }
      ],
      "name": "Transfer",
      "type": "event"
    },
    {
      "inputs": [
        {
          "internalType": "address",
          "name": "to",
          "type": "address"
        },
        {
          "internalType": "uint256",
          "name": "tokenId",
          "type": "uint256"
        }
      ],
      "name": "approve",
      "outputs": [],
      "stateMutability": "nonpayable",
      "type": "function"
    },
    {
      "inputs": [
        {
          "internalType": "address",
          "name": "owner",
          "type": "address"
        }
      ],
      "name": "balanceOf",
      "outputs": [
        {
          "internalType": "uint256",
          "name": "",
          "type": "uint256"
        }
      ],
      "stateMutability": "view",
      "type": "function"
    },
    {
      "inputs": [
        {
          "internalType": "uint256",
          "name": "tokenId",
          "type": "uint256"
        }
      ],
      "name": "getApproved",
      "outputs": [
        {
          "internalType": "address",
          "name": "",
          "type": "address"
        }
      ],
      "stateMutability": "view",
      "type": "function"
    },
    {
      "inputs": [
        {
          "internalType": "uint256",
          "name": "idx",
          "type": "uint256"
        }
      ],
      "name": "gethp",
      "outputs": [
        {
          "internalType": "uint256",
          "name": "hp",
          "type": "uint256"
        }
      ],
      "stateMutability": "view",
      "type": "function"
    },
    {
      "inputs": [
        {
          "internalType": "address",
          "name": "owner",
          "type": "address"
        },
        {
          "internalType": "address",
          "name": "operator",
          "type": "address"
        }
      ],
      "name": "isApprovedForAll",
      "outputs": [
        {
          "internalType": "bool",
          "name": "",
          "type": "bool"
        }
      ],
      "stateMutability": "view",
      "type": "function"
    },
    {
      "inputs": [],
      "name": "length",
      "outputs": [
        {
          "internalType": "uint256",
          "name": "size",
          "type": "uint256"
        }
      ],
      "stateMutability": "view",
      "type": "function"
    },
    {
      "inputs": [
        {
          "internalType": "uint256",
          "name": "_characterIndex",
          "type": "uint256"
        }
      ],
      "name": "mintCharacterNFT",
      "outputs": [],
      "stateMutability": "nonpayable",
      "type": "function"
    },
    {
      "inputs": [],
      "name": "name",
      "outputs": [
        {
          "internalType": "string",
          "name": "",
          "type": "string"
        }
      ],
      "stateMutability": "view",
      "type": "function"
    },
    {
      "inputs": [
        {
          "internalType": "uint256",
          "name": "",
          "type": "uint256"
        }
      ],
      "name": "nftHolderAttributes",
      "outputs": [
        {
          "internalType": "uint256",
          "name": "characterIndex",
          "type": "uint256"
        },
        {
          "internalType": "string",
          "name": "name",
          "type": "string"
        },
        {
          "internalType": "string",
          "name": "imageURI",
          "type": "string"
        },
        {
          "internalType": "uint256",
          "name": "hp",
          "type": "uint256"
        },
        {
          "internalType": "uint256",
          "name": "maxHp",
          "type": "uint256"
        },
        {
          "internalType": "uint256",
          "name": "attackDamage",
          "type": "uint256"
        }
      ],
      "stateMutability": "view",
      "type": "function"
    },
    {
      "inputs": [
        {
          "internalType": "address",
          "name": "",
          "type": "address"
        }
      ],
      "name": "nftHolders",
      "outputs": [
        {
          "internalType": "uint256",
          "name": "",
          "type": "uint256"
        }
      ],
      "stateMutability": "view",
      "type": "function"
    },
    {
      "inputs": [],
      "name": "numchars",
      "outputs": [
        {
          "internalType": "uint256",
          "name": "_value",
          "type": "uint256"
        }
      ],
      "stateMutability": "view",
      "type": "function"
    },
    {
      "inputs": [],
      "name": "owner",
      "outputs": [
        {
          "internalType": "address",
          "name": "",
          "type": "address"
        }
      ],
      "stateMutability": "view",
      "type": "function"
    },
    {
      "inputs": [
        {
          "internalType": "uint256",
          "name": "tokenId",
          "type": "uint256"
        }
      ],
      "name": "ownerOf",
      "outputs": [
        {
          "internalType": "address",
          "name": "",
          "type": "address"
        }
      ],
      "stateMutability": "view",
      "type": "function"
    },
    {
      "inputs": [
        {
          "internalType": "address",
          "name": "from",
          "type": "address"
        },
        {
          "internalType": "address",
          "name": "to",
          "type": "address"
        },
        {
          "internalType": "uint256",
          "name": "tokenId",
          "type": "uint256"
        }
      ],
      "name": "safeTransferFrom",
      "outputs": [],
      "stateMutability": "nonpayable",
      "type": "function"
    },
    {
      "inputs": [
        {
          "internalType": "address",
          "name": "from",
          "type": "address"
        },
        {
          "internalType": "address",
          "name": "to",
          "type": "address"
        },
        {
          "internalType": "uint256",
          "name": "tokenId",
          "type": "uint256"
        },
        {
          "internalType": "bytes",
          "name": "_data",
          "type": "bytes"
        }
      ],
      "name": "safeTransferFrom",
      "outputs": [],
      "stateMutability": "nonpayable",
      "type": "function"
    },
    {
      "inputs": [
        {
          "internalType": "address",
          "name": "operator",
          "type": "address"
        },
        {
          "internalType": "bool",
          "name": "approved",
          "type": "bool"
        }
      ],
      "name": "setApprovalForAll",
      "outputs": [],
      "stateMutability": "nonpayable",
      "type": "function"
    },
    {
      "inputs": [
        {
          "internalType": "bytes4",
          "name": "interfaceId",
          "type": "bytes4"
        }
      ],
      "name": "supportsInterface",
      "outputs": [
        {
          "internalType": "bool",
          "name": "",
          "type": "bool"
        }
      ],
      "stateMutability": "view",
      "type": "function"
    },
    {
      "inputs": [],
      "name": "symbol",
      "outputs": [
        {
          "internalType": "string",
          "name": "",
          "type": "string"
        }
      ],
      "stateMutability": "view",
      "type": "function"
    },
    {
      "inputs": [
        {
          "internalType": "uint256",
          "name": "_tokenId",
          "type": "uint256"
        }
      ],
      "name": "tokenURI",
      "outputs": [
        {
          "internalType": "string",
          "name": "",
          "type": "string"
        }
      ],
      "stateMutability": "view",
      "type": "function"
    },
    {
      "inputs": [
        {
          "internalType": "address",
          "name": "account",
          "type": "address"
        }
      ],
      "name": "tokenbalance",
      "outputs": [
        {
          "internalType": "uint256",
          "name": "",
          "type": "uint256"
        }
      ],
      "stateMutability": "view",
      "type": "function"
    },
    {
      "inputs": [],
      "name": "totalSupply",
      "outputs": [
        {
          "internalType": "uint256",
          "name": "",
          "type": "uint256"
        }
      ],
      "stateMutability": "view",
      "type": "function"
    },
    {
      "inputs": [
        {
          "internalType": "address",
          "name": "to",
          "type": "address"
        },
        {
          "internalType": "uint256",
          "name": "amount",
          "type": "uint256"
        }
      ],
      "name": "transfer",
      "outputs": [],
      "stateMutability": "nonpayable",
      "type": "function"
    },
    {
      "inputs": [
        {
          "internalType": "address",
          "name": "from",
          "type": "address"
        },
        {
          "internalType": "address",
          "name": "to",
          "type": "address"
        },
        {
          "internalType": "uint256",
          "name": "tokenId",
          "type": "uint256"
        }
      ],
      "name": "transferFrom",
      "outputs": [],
      "stateMutability": "nonpayable",
      "type": "function"
    }
  ],
  "bytecode": "0x6080604052620f42406006553480156200001857600080fd5b50604051620048853803806200488583398181016040528101906200003e919062000912565b6040518060400160405280600681526020017f4865726f657300000000000000000000000000000000000000000000000000008152506040518060400160405280600481526020017f4845524f000000000000000000000000000000000000000000000000000000008152508160009080519060200190620000c2929190620006a5565b508060019080519060200190620000db929190620006a5565b50505060005b8451811015620005115760096040518060c0016040528083815260200187848151811062000138577f4e487b7100000000000000000000000000000000000000000000000000000000600052603260045260246000fd5b602002602001015181526020018684815181106200017f577f4e487b7100000000000000000000000000000000000000000000000000000000600052603260045260246000fd5b60200260200101518152602001858481518110620001c6577f4e487b7100000000000000000000000000000000000000000000000000000000600052603260045260246000fd5b602002602001015181526020018584815181106200020d577f4e487b7100000000000000000000000000000000000000000000000000000000600052603260045260246000fd5b6020026020010151815260200184848151811062000254577f4e487b7100000000000000000000000000000000000000000000000000000000600052603260045260246000fd5b60200260200101518152509080600181540180825580915050600190039060005260206000209060060201600090919091909150600082015181600001556020820151816001019080519060200190620002b0929190620006a5565b506040820151816002019080519060200190620002cf929190620006a5565b50606082015181600301556080820151816004015560a082015181600501555050620003076008620005ba60201b620015a61760201c565b60006009828154811062000344577f4e487b7100000000000000000000000000000000000000000000000000000000600052603260045260246000fd5b90600052602060002090600602016040518060c001604052908160008201548152602001600182018054620003799062000c0c565b80601f0160208091040260200160405190810160405280929190818152602001828054620003a79062000c0c565b8015620003f85780601f10620003cc57610100808354040283529160200191620003f8565b820191906000526020600020905b815481529060010190602001808311620003da57829003601f168201915b50505050508152602001600282018054620004139062000c0c565b80601f0160208091040260200160405190810160405280929190818152602001828054620004419062000c0c565b8015620004925780601f10620004665761010080835404028352916020019162000492565b820191906000526020600020905b8154815290600101906020018083116200047457829003601f168201915b5050505050815260200160038201548152602001600482015481526020016005820154815250509050620004f96040518060600160405280602581526020016200486060259139826020015183606001518460400151620005d060201b620015bc1760201c565b5060018162000509919062000b6f565b9050620000e1565b50600654600b60003373ffffffffffffffffffffffffffffffffffffffff1673ffffffffffffffffffffffffffffffffffffffff1681526020019081526020016000208190555033600a60006101000a81548173ffffffffffffffffffffffffffffffffffffffff021916908373ffffffffffffffffffffffffffffffffffffffff160217905550620005b06007620005ba60201b620015a61760201c565b5050505062000d30565b6001816000016000828254019250508190555050565b6200067684848484604051602401620005ed949392919062000a34565b6040516020818303038152906040527f8d142cdd000000000000000000000000000000000000000000000000000000007bffffffffffffffffffffffffffffffffffffffffffffffffffffffff19166020820180517bffffffffffffffffffffffffffffffffffffffffffffffffffffffff83818316178352505050506200067c60201b60201c565b50505050565b60008151905060006a636f6e736f6c652e6c6f679050602083016000808483855afa5050505050565b828054620006b39062000c0c565b90600052602060002090601f016020900481019282620006d7576000855562000723565b82601f10620006f257805160ff191683800117855562000723565b8280016001018555821562000723579182015b828111156200072257825182559160200191906001019062000705565b5b50905062000732919062000736565b5090565b5b808211156200075157600081600090555060010162000737565b5090565b60006200076c620007668462000abf565b62000a96565b9050808382526020820190508260005b85811015620007b05781518501620007958882620008ce565b8452602084019350602083019250506001810190506200077c565b5050509392505050565b6000620007d1620007cb8462000aee565b62000a96565b90508083825260208201905082856020860282011115620007f157600080fd5b60005b858110156200082557816200080a8882620008fb565b845260208401935060208301925050600181019050620007f4565b5050509392505050565b600062000846620008408462000b1d565b62000a96565b9050828152602081018484840111156200085f57600080fd5b6200086c84828562000bd6565b509392505050565b600082601f8301126200088657600080fd5b81516200089884826020860162000755565b91505092915050565b600082601f830112620008b357600080fd5b8151620008c5848260208601620007ba565b91505092915050565b600082601f830112620008e057600080fd5b8151620008f28482602086016200082f565b91505092915050565b6000815190506200090c8162000d16565b92915050565b600080600080608085870312156200092957600080fd5b600085015167ffffffffffffffff8111156200094457600080fd5b620009528782880162000874565b945050602085015167ffffffffffffffff8111156200097057600080fd5b6200097e8782880162000874565b935050604085015167ffffffffffffffff8111156200099c57600080fd5b620009aa87828801620008a1565b925050606085015167ffffffffffffffff811115620009c857600080fd5b620009d687828801620008a1565b91505092959194509250565b6000620009ef8262000b53565b620009fb818562000b5e565b935062000a0d81856020860162000bd6565b62000a188162000d05565b840191505092915050565b62000a2e8162000bcc565b82525050565b6000608082019050818103600083015262000a508187620009e2565b9050818103602083015262000a668186620009e2565b905062000a77604083018562000a23565b818103606083015262000a8b8184620009e2565b905095945050505050565b600062000aa262000ab5565b905062000ab0828262000c42565b919050565b6000604051905090565b600067ffffffffffffffff82111562000add5762000adc62000cd6565b5b602082029050602081019050919050565b600067ffffffffffffffff82111562000b0c5762000b0b62000cd6565b5b602082029050602081019050919050565b600067ffffffffffffffff82111562000b3b5762000b3a62000cd6565b5b62000b468262000d05565b9050602081019050919050565b600081519050919050565b600082825260208201905092915050565b600062000b7c8262000bcc565b915062000b898362000bcc565b9250827fffffffffffffffffffffffffffffffffffffffffffffffffffffffffffffffff0382111562000bc15762000bc062000c78565b5b828201905092915050565b6000819050919050565b60005b8381101562000bf657808201518184015260208101905062000bd9565b8381111562000c06576000848401525b50505050565b6000600282049050600182168062000c2557607f821691505b6020821081141562000c3c5762000c3b62000ca7565b5b50919050565b62000c4d8262000d05565b810181811067ffffffffffffffff8211171562000c6f5762000c6e62000cd6565b5b80604052505050565b7f4e487b7100000000000000000000000000000000000000000000000000000000600052601160045260246000fd5b7f4e487b7100000000000000000000000000000000000000000000000000000000600052602260045260246000fd5b7f4e487b7100000000000000000000000000000000000000000000000000000000600052604160045260246000fd5b6000601f19601f8301169050919050565b62000d218162000bcc565b811462000d2d57600080fd5b50565b613b208062000d406000396000f3fe608060405234801561001057600080fd5b506004361061014d5760003560e01c80638da5cb5b116100c3578063a9059cbb1161007c578063a9059cbb146103cb578063b88d4fde146103e7578063c87b56dd14610403578063e90c0f2c14610433578063e985e9c514610463578063f8b81ef7146104935761014d565b80638da5cb5b146102f057806395a9d1701461030e57806395d89b411461033e57806398da4c951461035c5780639a0a5da714610391578063a22cb465146103af5761014d565b80631f7b6d32116101155780631f7b6d321461020a57806323b872dd1461022857806342842e0e146102445780636352211e1461026057806370a08231146102905780637df124a1146102c05761014d565b806301ffc9a71461015257806306fdde0314610182578063081812fc146101a0578063095ea7b3146101d057806318160ddd146101ec575b600080fd5b61016c60048036038101906101679190612870565b6104af565b6040516101799190612deb565b60405180910390f35b61018a610591565b6040516101979190612e06565b60405180910390f35b6101ba60048036038101906101b591906128c2565b610623565b6040516101c79190612d84565b60405180910390f35b6101ea60048036038101906101e59190612834565b6106a8565b005b6101f46107c0565b6040516102019190613042565b60405180910390f35b6102126107c6565b60405161021f9190613042565b60405180910390f35b610242600480360381019061023d919061272e565b6107d7565b005b61025e6004803603810190610259919061272e565b610837565b005b61027a600480360381019061027591906128c2565b610857565b6040516102879190612d84565b60405180910390f35b6102aa60048036038101906102a591906126c9565b610909565b6040516102b79190613042565b60405180910390f35b6102da60048036038101906102d591906126c9565b6109c1565b6040516102e79190613042565b60405180910390f35b6102f86109d9565b6040516103059190612d84565b60405180910390f35b610328600480360381019061032391906128c2565b6109ff565b6040516103359190613042565b60405180910390f35b610346610b84565b6040516103539190612e06565b60405180910390f35b610376600480360381019061037191906128c2565b610c16565b6040516103889695949392919061305d565b60405180910390f35b610399610d62565b6040516103a69190613042565b60405180910390f35b6103c960048036038101906103c491906127f8565b610d6e565b005b6103e560048036038101906103e09190612834565b610d84565b005b61040160048036038101906103fc919061277d565b610eb6565b005b61041d600480360381019061041891906128c2565b610f18565b60405161042a9190612e06565b60405180910390f35b61044d600480360381019061044891906126c9565b611133565b60405161045a9190613042565b60405180910390f35b61047d600480360381019061047891906126f2565b61117c565b60405161048a9190612deb565b60405180910390f35b6104ad60048036038101906104a891906128c2565b611210565b005b60007f80ac58cd000000000000000000000000000000000000000000000000000000007bffffffffffffffffffffffffffffffffffffffffffffffffffffffff1916827bffffffffffffffffffffffffffffffffffffffffffffffffffffffff1916148061057a57507f5b5e139f000000000000000000000000000000000000000000000000000000007bffffffffffffffffffffffffffffffffffffffffffffffffffffffff1916827bffffffffffffffffffffffffffffffffffffffffffffffffffffffff1916145b8061058a57506105898261165e565b5b9050919050565b6060600080546105a090613330565b80601f01602080910402602001604051908101604052809291908181526020018280546105cc90613330565b80156106195780601f106105ee57610100808354040283529160200191610619565b820191906000526020600020905b8154815290600101906020018083116105fc57829003601f168201915b5050505050905090565b600061062e826116c8565b61066d576040517f08c379a000000000000000000000000000000000000000000000000000000000815260040161066490612fc2565b60405180910390fd5b6004600083815260200190815260200160002060009054906101000a900473ffffffffffffffffffffffffffffffffffffffff169050919050565b60006106b382610857565b90508073ffffffffffffffffffffffffffffffffffffffff168373ffffffffffffffffffffffffffffffffffffffff161415610724576040517f08c379a000000000000000000000000000000000000000000000000000000000815260040161071b90612fe2565b60405180910390fd5b8073ffffffffffffffffffffffffffffffffffffffff16610743611734565b73ffffffffffffffffffffffffffffffffffffffff16148061077257506107718161076c611734565b61117c565b5b6107b1576040517f08c379a00000000000000000000000000000000000000000000000000000000081526004016107a890612f42565b60405180910390fd5b6107bb838361173c565b505050565b60065481565b60006107d260086117f5565b905090565b6107e86107e2611734565b82611803565b610827576040517f08c379a000000000000000000000000000000000000000000000000000000000815260040161081e90613002565b60405180910390fd5b6108328383836118e1565b505050565b61085283838360405180602001604052806000815250610eb6565b505050565b6000806002600084815260200190815260200160002060009054906101000a900473ffffffffffffffffffffffffffffffffffffffff169050600073ffffffffffffffffffffffffffffffffffffffff168173ffffffffffffffffffffffffffffffffffffffff161415610900576040517f08c379a00000000000000000000000000000000000000000000000000000000081526004016108f790612f82565b60405180910390fd5b80915050919050565b60008073ffffffffffffffffffffffffffffffffffffffff168273ffffffffffffffffffffffffffffffffffffffff16141561097a576040517f08c379a000000000000000000000000000000000000000000000000000000000815260040161097190612f62565b60405180910390fd5b600360008373ffffffffffffffffffffffffffffffffffffffff1673ffffffffffffffffffffffffffffffffffffffff168152602001908152602001600020549050919050565b600d6020528060005260406000206000915090505481565b600a60009054906101000a900473ffffffffffffffffffffffffffffffffffffffff1681565b600080600c60008481526020019081526020016000206040518060c001604052908160008201548152602001600182018054610a3a90613330565b80601f0160208091040260200160405190810160405280929190818152602001828054610a6690613330565b8015610ab35780601f10610a8857610100808354040283529160200191610ab3565b820191906000526020600020905b815481529060010190602001808311610a9657829003601f168201915b50505050508152602001600282018054610acc90613330565b80601f0160208091040260200160405190810160405280929190818152602001828054610af890613330565b8015610b455780601f10610b1a57610100808354040283529160200191610b45565b820191906000526020600020905b815481529060010190602001808311610b2857829003601f168201915b505050505081526020016003820154815260200160048201548152602001600582015481525050905080606001519150610b7e82611b48565b50919050565b606060018054610b9390613330565b80601f0160208091040260200160405190810160405280929190818152602001828054610bbf90613330565b8015610c0c5780601f10610be157610100808354040283529160200191610c0c565b820191906000526020600020905b815481529060010190602001808311610bef57829003601f168201915b5050505050905090565b600c602052806000526040600020600091509050806000015490806001018054610c3f90613330565b80601f0160208091040260200160405190810160405280929190818152602001828054610c6b90613330565b8015610cb85780601f10610c8d57610100808354040283529160200191610cb8565b820191906000526020600020905b815481529060010190602001808311610c9b57829003601f168201915b505050505090806002018054610ccd90613330565b80601f0160208091040260200160405190810160405280929190818152602001828054610cf990613330565b8015610d465780601f10610d1b57610100808354040283529160200191610d46565b820191906000526020600020905b815481529060010190602001808311610d2957829003601f168201915b5050505050908060030154908060040154908060050154905086565b60088060000154905081565b610d80610d79611734565b8383611be1565b5050565b80600b60003373ffffffffffffffffffffffffffffffffffffffff1673ffffffffffffffffffffffffffffffffffffffff168152602001908152602001600020541015610e06576040517f08c379a0000000000000000000000000000000000000000000000000000000008152600401610dfd90613022565b60405180910390fd5b80600b60003373ffffffffffffffffffffffffffffffffffffffff1673ffffffffffffffffffffffffffffffffffffffff1681526020019081526020016000206000828254610e559190613246565b9250508190555080600b60008473ffffffffffffffffffffffffffffffffffffffff1673ffffffffffffffffffffffffffffffffffffffff1681526020019081526020016000206000828254610eab9190613165565b925050819055505050565b610ec7610ec1611734565b83611803565b610f06576040517f08c379a0000000000000000000000000000000000000000000000000000000008152600401610efd90613002565b60405180910390fd5b610f1284848484611d4e565b50505050565b60606000600c60008481526020019081526020016000206040518060c001604052908160008201548152602001600182018054610f5490613330565b80601f0160208091040260200160405190810160405280929190818152602001828054610f8090613330565b8015610fcd5780601f10610fa257610100808354040283529160200191610fcd565b820191906000526020600020905b815481529060010190602001808311610fb057829003601f168201915b50505050508152602001600282018054610fe690613330565b80601f016020809104026020016040519081016040528092919081815260200182805461101290613330565b801561105f5780601f106110345761010080835404028352916020019161105f565b820191906000526020600020905b81548152906001019060200180831161104257829003601f168201915b505050505081526020016003820154815260200160048201548152602001600582015481525050905060006110978260600151611daa565b905060006110a88360800151611daa565b905060006110b98460a00151611daa565b905060006110ff85602001516110ce89611daa565b87604001518787876040516020016110eb96959493929190612cbd565b604051602081830303815290604052611f57565b90506000816040516020016111149190612d62565b6040516020818303038152906040529050809650505050505050919050565b6000600b60008373ffffffffffffffffffffffffffffffffffffffff1673ffffffffffffffffffffffffffffffffffffffff168152602001908152602001600020549050919050565b6000600560008473ffffffffffffffffffffffffffffffffffffffff1673ffffffffffffffffffffffffffffffffffffffff16815260200190815260200160002060008373ffffffffffffffffffffffffffffffffffffffff1673ffffffffffffffffffffffffffffffffffffffff16815260200190815260200160002060009054906101000a900460ff16905092915050565b600061121c60076117f5565b90506112283382612115565b6040518060c0016040528083815260200160098481548110611273577f4e487b7100000000000000000000000000000000000000000000000000000000600052603260045260246000fd5b9060005260206000209060060201600101805461128f90613330565b80601f01602080910402602001604051908101604052809291908181526020018280546112bb90613330565b80156113085780601f106112dd57610100808354040283529160200191611308565b820191906000526020600020905b8154815290600101906020018083116112eb57829003601f168201915b505050505081526020016009848154811061134c577f4e487b7100000000000000000000000000000000000000000000000000000000600052603260045260246000fd5b9060005260206000209060060201600201805461136890613330565b80601f016020809104026020016040519081016040528092919081815260200182805461139490613330565b80156113e15780601f106113b6576101008083540402835291602001916113e1565b820191906000526020600020905b8154815290600101906020018083116113c457829003601f168201915b5050505050815260200160098481548110611425577f4e487b7100000000000000000000000000000000000000000000000000000000600052603260045260246000fd5b906000526020600020906006020160030154815260200160098481548110611476577f4e487b7100000000000000000000000000000000000000000000000000000000600052603260045260246000fd5b9060005260206000209060060201600401548152602001600984815481106114c7577f4e487b7100000000000000000000000000000000000000000000000000000000600052603260045260246000fd5b906000526020600020906006020160050154815250600c6000838152602001908152602001600020600082015181600001556020820151816001019080519060200190611515929190612555565b506040820151816002019080519060200190611532929190612555565b50606082015181600301556080820151816004015560a0820151816005015590505080600d60003373ffffffffffffffffffffffffffffffffffffffff1673ffffffffffffffffffffffffffffffffffffffff168152602001908152602001600020819055506115a260076115a6565b5050565b6001816000016000828254019250508190555050565b611658848484846040516024016115d69493929190612e28565b6040516020818303038152906040527f8d142cdd000000000000000000000000000000000000000000000000000000007bffffffffffffffffffffffffffffffffffffffffffffffffffffffff19166020820180517bffffffffffffffffffffffffffffffffffffffffffffffffffffffff8381831617835250505050612133565b50505050565b60007f01ffc9a7000000000000000000000000000000000000000000000000000000007bffffffffffffffffffffffffffffffffffffffffffffffffffffffff1916827bffffffffffffffffffffffffffffffffffffffffffffffffffffffff1916149050919050565b60008073ffffffffffffffffffffffffffffffffffffffff166002600084815260200190815260200160002060009054906101000a900473ffffffffffffffffffffffffffffffffffffffff1673ffffffffffffffffffffffffffffffffffffffff1614159050919050565b600033905090565b816004600083815260200190815260200160002060006101000a81548173ffffffffffffffffffffffffffffffffffffffff021916908373ffffffffffffffffffffffffffffffffffffffff160217905550808273ffffffffffffffffffffffffffffffffffffffff166117af83610857565b73ffffffffffffffffffffffffffffffffffffffff167f8c5be1e5ebec7d5bd14f71427d1e84f3dd0314c0f7b2291e5b200ac8c7c3b92560405160405180910390a45050565b600081600001549050919050565b600061180e826116c8565b61184d576040517f08c379a000000000000000000000000000000000000000000000000000000000815260040161184490612f22565b60405180910390fd5b600061185883610857565b90508073ffffffffffffffffffffffffffffffffffffffff168473ffffffffffffffffffffffffffffffffffffffff1614806118c757508373ffffffffffffffffffffffffffffffffffffffff166118af84610623565b73ffffffffffffffffffffffffffffffffffffffff16145b806118d857506118d7818561117c565b5b91505092915050565b8273ffffffffffffffffffffffffffffffffffffffff1661190182610857565b73ffffffffffffffffffffffffffffffffffffffff1614611957576040517f08c379a000000000000000000000000000000000000000000000000000000000815260040161194e90612ea2565b60405180910390fd5b600073ffffffffffffffffffffffffffffffffffffffff168273ffffffffffffffffffffffffffffffffffffffff1614156119c7576040517f08c379a00000000000000000000000000000000000000000000000000000000081526004016119be90612ee2565b60405180910390fd5b6119d283838361215c565b6119dd60008261173c565b6001600360008573ffffffffffffffffffffffffffffffffffffffff1673ffffffffffffffffffffffffffffffffffffffff1681526020019081526020016000206000828254611a2d9190613246565b925050819055506001600360008473ffffffffffffffffffffffffffffffffffffffff1673ffffffffffffffffffffffffffffffffffffffff1681526020019081526020016000206000828254611a849190613165565b92505081905550816002600083815260200190815260200160002060006101000a81548173ffffffffffffffffffffffffffffffffffffffff021916908373ffffffffffffffffffffffffffffffffffffffff160217905550808273ffffffffffffffffffffffffffffffffffffffff168473ffffffffffffffffffffffffffffffffffffffff167fddf252ad1be2c89b69c2b068fc378daa952ba7f163c4a11628f55a4df523b3ef60405160405180910390a4611b43838383612161565b505050565b611bde81604051602401611b5c9190613042565b6040516020818303038152906040527ff5b1bba9000000000000000000000000000000000000000000000000000000007bffffffffffffffffffffffffffffffffffffffffffffffffffffffff19166020820180517bffffffffffffffffffffffffffffffffffffffffffffffffffffffff8381831617835250505050612133565b50565b8173ffffffffffffffffffffffffffffffffffffffff168373ffffffffffffffffffffffffffffffffffffffff161415611c50576040517f08c379a0000000000000000000000000000000000000000000000000000000008152600401611c4790612f02565b60405180910390fd5b80600560008573ffffffffffffffffffffffffffffffffffffffff1673ffffffffffffffffffffffffffffffffffffffff16815260200190815260200160002060008473ffffffffffffffffffffffffffffffffffffffff1673ffffffffffffffffffffffffffffffffffffffff16815260200190815260200160002060006101000a81548160ff0219169083151502179055508173ffffffffffffffffffffffffffffffffffffffff168373ffffffffffffffffffffffffffffffffffffffff167f17307eab39ab6107e8899845ad3d59bd9653f200f220920489ca2b5937696c3183604051611d419190612deb565b60405180910390a3505050565b611d598484846118e1565b611d6584848484612166565b611da4576040517f08c379a0000000000000000000000000000000000000000000000000000000008152600401611d9b90612e82565b60405180910390fd5b50505050565b60606000821415611df2576040518060400160405280600181526020017f30000000000000000000000000000000000000000000000000000000000000008152509050611f52565b600082905060005b60008214611e24578080611e0d90613393565b915050600a82611e1d91906131bb565b9150611dfa565b60008167ffffffffffffffff811115611e66577f4e487b7100000000000000000000000000000000000000000000000000000000600052604160045260246000fd5b6040519080825280601f01601f191660200182016040528015611e985781602001600182028036833780820191505090505b5090505b60008514611f4b57600182611eb19190613246565b9150600a85611ec091906133dc565b6030611ecc9190613165565b60f81b818381518110611f08577f4e487b7100000000000000000000000000000000000000000000000000000000600052603260045260246000fd5b60200101907effffffffffffffffffffffffffffffffffffffffffffffffffffffffffffff1916908160001a905350600a85611f4491906131bb565b9450611e9c565b8093505050505b919050565b60606000825190506000811415611f805760405180602001604052806000815250915050612110565b60006003600283611f919190613165565b611f9b91906131bb565b6004611fa791906131ec565b90506000602082611fb89190613165565b67ffffffffffffffff811115611ff7577f4e487b7100000000000000000000000000000000000000000000000000000000600052604160045260246000fd5b6040519080825280601f01601f1916602001820160405280156120295781602001600182028036833780820191505090505b5090506000604051806060016040528060408152602001613aab604091399050600181016020830160005b868110156120cd5760038101905062ffffff818a015116603f8160121c168401518060081b905060ff603f83600c1c1686015116810190508060081b905060ff603f8360061c1686015116810190508060081b905060ff603f831686015116810190508060e01b90508084526004840193505050612054565b5060038606600181146120e757600281146120f757612102565b613d3d60f01b6002830352612102565b603d60f81b60018303525b508484525050819450505050505b919050565b61212f8282604051806020016040528060008152506122fd565b5050565b60008151905060006a636f6e736f6c652e6c6f679050602083016000808483855afa5050505050565b505050565b505050565b60006121878473ffffffffffffffffffffffffffffffffffffffff16612358565b156122f0578373ffffffffffffffffffffffffffffffffffffffff1663150b7a026121b0611734565b8786866040518563ffffffff1660e01b81526004016121d29493929190612d9f565b602060405180830381600087803b1580156121ec57600080fd5b505af192505050801561221d57506040513d601f19601f8201168201806040525081019061221a9190612899565b60015b6122a0573d806000811461224d576040519150601f19603f3d011682016040523d82523d6000602084013e612252565b606091505b50600081511415612298576040517f08c379a000000000000000000000000000000000000000000000000000000000815260040161228f90612e82565b60405180910390fd5b805181602001fd5b63150b7a0260e01b7bffffffffffffffffffffffffffffffffffffffffffffffffffffffff1916817bffffffffffffffffffffffffffffffffffffffffffffffffffffffff1916149150506122f5565b600190505b949350505050565b612307838361237b565b6123146000848484612166565b612353576040517f08c379a000000000000000000000000000000000000000000000000000000000815260040161234a90612e82565b60405180910390fd5b505050565b6000808273ffffffffffffffffffffffffffffffffffffffff163b119050919050565b600073ffffffffffffffffffffffffffffffffffffffff168273ffffffffffffffffffffffffffffffffffffffff1614156123eb576040517f08c379a00000000000000000000000000000000000000000000000000000000081526004016123e290612fa2565b60405180910390fd5b6123f4816116c8565b15612434576040517f08c379a000000000000000000000000000000000000000000000000000000000815260040161242b90612ec2565b60405180910390fd5b6124406000838361215c565b6001600360008473ffffffffffffffffffffffffffffffffffffffff1673ffffffffffffffffffffffffffffffffffffffff16815260200190815260200160002060008282546124909190613165565b92505081905550816002600083815260200190815260200160002060006101000a81548173ffffffffffffffffffffffffffffffffffffffff021916908373ffffffffffffffffffffffffffffffffffffffff160217905550808273ffffffffffffffffffffffffffffffffffffffff16600073ffffffffffffffffffffffffffffffffffffffff167fddf252ad1be2c89b69c2b068fc378daa952ba7f163c4a11628f55a4df523b3ef60405160405180910390a461255160008383612161565b5050565b82805461256190613330565b90600052602060002090601f01602090048101928261258357600085556125ca565b82601f1061259c57805160ff19168380011785556125ca565b828001600101855582156125ca579182015b828111156125c95782518255916020019190600101906125ae565b5b5090506125d791906125db565b5090565b5b808211156125f45760008160009055506001016125dc565b5090565b600061260b612606846130f1565b6130cc565b90508281526020810184848401111561262357600080fd5b61262e8482856132ee565b509392505050565b60008135905061264581613a4e565b92915050565b60008135905061265a81613a65565b92915050565b60008135905061266f81613a7c565b92915050565b60008151905061268481613a7c565b92915050565b600082601f83011261269b57600080fd5b81356126ab8482602086016125f8565b91505092915050565b6000813590506126c381613a93565b92915050565b6000602082840312156126db57600080fd5b60006126e984828501612636565b91505092915050565b6000806040838503121561270557600080fd5b600061271385828601612636565b925050602061272485828601612636565b9150509250929050565b60008060006060848603121561274357600080fd5b600061275186828701612636565b935050602061276286828701612636565b9250506040612773868287016126b4565b9150509250925092565b6000806000806080858703121561279357600080fd5b60006127a187828801612636565b94505060206127b287828801612636565b93505060406127c3878288016126b4565b925050606085013567ffffffffffffffff8111156127e057600080fd5b6127ec8782880161268a565b91505092959194509250565b6000806040838503121561280b57600080fd5b600061281985828601612636565b925050602061282a8582860161264b565b9150509250929050565b6000806040838503121561284757600080fd5b600061285585828601612636565b9250506020612866858286016126b4565b9150509250929050565b60006020828403121561288257600080fd5b600061289084828501612660565b91505092915050565b6000602082840312156128ab57600080fd5b60006128b984828501612675565b91505092915050565b6000602082840312156128d457600080fd5b60006128e2848285016126b4565b91505092915050565b6128f48161327a565b82525050565b6129038161328c565b82525050565b600061291482613122565b61291e8185613138565b935061292e8185602086016132fd565b612937816134c9565b840191505092915050565b600061294d8261312d565b6129578185613149565b93506129678185602086016132fd565b612970816134c9565b840191505092915050565b60006129868261312d565b612990818561315a565b93506129a08185602086016132fd565b80840191505092915050565b60006129b9600b8361315a565b91506129c4826134da565b600b82019050919050565b60006129dc603283613149565b91506129e782613503565b604082019050919050565b60006129ff602583613149565b9150612a0a82613552565b604082019050919050565b6000612a2260348361315a565b9150612a2d826135a1565b603482019050919050565b6000612a45601c83613149565b9150612a50826135f0565b602082019050919050565b6000612a68600e8361315a565b9150612a7382613619565b600e82019050919050565b6000612a8b602483613149565b9150612a9682613642565b604082019050919050565b6000612aae601983613149565b9150612ab982613691565b602082019050919050565b6000612ad1602c83613149565b9150612adc826136ba565b604082019050919050565b6000612af4603883613149565b9150612aff82613709565b604082019050919050565b6000612b17602a83613149565b9150612b2282613758565b604082019050919050565b6000612b3a602983613149565b9150612b45826137a7565b604082019050919050565b6000612b5d60048361315a565b9150612b68826137f6565b600482019050919050565b6000612b80602083613149565b9150612b8b8261381f565b602082019050919050565b6000612ba3602c83613149565b9150612bae82613848565b604082019050919050565b6000612bc6600a8361315a565b9150612bd182613897565b600a82019050919050565b6000612be9602183613149565b9150612bf4826138c0565b604082019050919050565b6000612c0c601d8361315a565b9150612c178261390f565b601d82019050919050565b6000612c2f603183613149565b9150612c3a82613938565b604082019050919050565b6000612c52603d8361315a565b9150612c5d82613987565b603d82019050919050565b6000612c75602d8361315a565b9150612c80826139d6565b602d82019050919050565b6000612c98601183613149565b9150612ca382613a25565b602082019050919050565b612cb7816132e4565b82525050565b6000612cc882612bb9565b9150612cd4828961297b565b9150612cdf826129ac565b9150612ceb828861297b565b9150612cf682612a15565b9150612d02828761297b565b9150612d0d82612c45565b9150612d19828661297b565b9150612d2482612a5b565b9150612d30828561297b565b9150612d3b82612c68565b9150612d47828461297b565b9150612d5282612b50565b9150819050979650505050505050565b6000612d6d82612bff565b9150612d79828461297b565b915081905092915050565b6000602082019050612d9960008301846128eb565b92915050565b6000608082019050612db460008301876128eb565b612dc160208301866128eb565b612dce6040830185612cae565b8181036060830152612de08184612909565b905095945050505050565b6000602082019050612e0060008301846128fa565b92915050565b60006020820190508181036000830152612e208184612942565b905092915050565b60006080820190508181036000830152612e428187612942565b90508181036020830152612e568186612942565b9050612e656040830185612cae565b8181036060830152612e778184612942565b905095945050505050565b60006020820190508181036000830152612e9b816129cf565b9050919050565b60006020820190508181036000830152612ebb816129f2565b9050919050565b60006020820190508181036000830152612edb81612a38565b9050919050565b60006020820190508181036000830152612efb81612a7e565b9050919050565b60006020820190508181036000830152612f1b81612aa1565b9050919050565b60006020820190508181036000830152612f3b81612ac4565b9050919050565b60006020820190508181036000830152612f5b81612ae7565b9050919050565b60006020820190508181036000830152612f7b81612b0a565b9050919050565b60006020820190508181036000830152612f9b81612b2d565b9050919050565b60006020820190508181036000830152612fbb81612b73565b9050919050565b60006020820190508181036000830152612fdb81612b96565b9050919050565b60006020820190508181036000830152612ffb81612bdc565b9050919050565b6000602082019050818103600083015261301b81612c22565b9050919050565b6000602082019050818103600083015261303b81612c8b565b9050919050565b60006020820190506130576000830184612cae565b92915050565b600060c0820190506130726000830189612cae565b81810360208301526130848188612942565b905081810360408301526130988187612942565b90506130a76060830186612cae565b6130b46080830185612cae565b6130c160a0830184612cae565b979650505050505050565b60006130d66130e7565b90506130e28282613362565b919050565b6000604051905090565b600067ffffffffffffffff82111561310c5761310b61349a565b5b613115826134c9565b9050602081019050919050565b600081519050919050565b600081519050919050565b600082825260208201905092915050565b600082825260208201905092915050565b600081905092915050565b6000613170826132e4565b915061317b836132e4565b9250827fffffffffffffffffffffffffffffffffffffffffffffffffffffffffffffffff038211156131b0576131af61340d565b5b828201905092915050565b60006131c6826132e4565b91506131d1836132e4565b9250826131e1576131e061343c565b5b828204905092915050565b60006131f7826132e4565b9150613202836132e4565b9250817fffffffffffffffffffffffffffffffffffffffffffffffffffffffffffffffff048311821515161561323b5761323a61340d565b5b828202905092915050565b6000613251826132e4565b915061325c836132e4565b92508282101561326f5761326e61340d565b5b828203905092915050565b6000613285826132c4565b9050919050565b60008115159050919050565b60007fffffffff0000000000000000000000000000000000000000000000000000000082169050919050565b600073ffffffffffffffffffffffffffffffffffffffff82169050919050565b6000819050919050565b82818337600083830152505050565b60005b8381101561331b578082015181840152602081019050613300565b8381111561332a576000848401525b50505050565b6000600282049050600182168061334857607f821691505b6020821081141561335c5761335b61346b565b5b50919050565b61336b826134c9565b810181811067ffffffffffffffff8211171561338a5761338961349a565b5b80604052505050565b600061339e826132e4565b91507fffffffffffffffffffffffffffffffffffffffffffffffffffffffffffffffff8214156133d1576133d061340d565b5b600182019050919050565b60006133e7826132e4565b91506133f2836132e4565b9250826134025761340161343c565b5b828206905092915050565b7f4e487b7100000000000000000000000000000000000000000000000000000000600052601160045260246000fd5b7f4e487b7100000000000000000000000000000000000000000000000000000000600052601260045260246000fd5b7f4e487b7100000000000000000000000000000000000000000000000000000000600052602260045260246000fd5b7f4e487b7100000000000000000000000000000000000000000000000000000000600052604160045260246000fd5b6000601f19601f8301169050919050565b7f202d2d204e465420233a20000000000000000000000000000000000000000000600082015250565b7f4552433732313a207472616e7366657220746f206e6f6e20455243373231526560008201527f63656976657220696d706c656d656e7465720000000000000000000000000000602082015250565b7f4552433732313a207472616e736665722066726f6d20696e636f72726563742060008201527f6f776e6572000000000000000000000000000000000000000000000000000000602082015250565b7f222c20226465736372697074696f6e223a2022546869732069732061206d696e60008201527f746564204e4654222c2022696d616765223a2022000000000000000000000000602082015250565b7f4552433732313a20746f6b656e20616c7265616479206d696e74656400000000600082015250565b7f2c20226d61785f76616c7565223a000000000000000000000000000000000000600082015250565b7f4552433732313a207472616e7366657220746f20746865207a65726f2061646460008201527f7265737300000000000000000000000000000000000000000000000000000000602082015250565b7f4552433732313a20617070726f766520746f2063616c6c657200000000000000600082015250565b7f4552433732313a206f70657261746f7220717565727920666f72206e6f6e657860008201527f697374656e7420746f6b656e0000000000000000000000000000000000000000602082015250565b7f4552433732313a20617070726f76652063616c6c6572206973206e6f74206f7760008201527f6e6572206e6f7220617070726f76656420666f7220616c6c0000000000000000602082015250565b7f4552433732313a2062616c616e636520717565727920666f7220746865207a6560008201527f726f206164647265737300000000000000000000000000000000000000000000602082015250565b7f4552433732313a206f776e657220717565727920666f72206e6f6e657869737460008201527f656e7420746f6b656e0000000000000000000000000000000000000000000000602082015250565b7f7d205d7d00000000000000000000000000000000000000000000000000000000600082015250565b7f4552433732313a206d696e7420746f20746865207a65726f2061646472657373600082015250565b7f4552433732313a20617070726f76656420717565727920666f72206e6f6e657860008201527f697374656e7420746f6b656e0000000000000000000000000000000000000000602082015250565b7f7b226e616d65223a202200000000000000000000000000000000000000000000600082015250565b7f4552433732313a20617070726f76616c20746f2063757272656e74206f776e6560008201527f7200000000000000000000000000000000000000000000000000000000000000602082015250565b7f646174613a6170706c69636174696f6e2f6a736f6e3b6261736536342c000000600082015250565b7f4552433732313a207472616e736665722063616c6c6572206973206e6f74206f60008201527f776e6572206e6f7220617070726f766564000000000000000000000000000000602082015250565b7f222c202261747472696275746573223a205b207b202274726169745f7479706560008201527f223a20224865616c746820506f696e7473222c202276616c7565223a20000000602082015250565b7f7d2c207b202274726169745f74797065223a202241747461636b2044616d616760008201527f65222c202276616c7565223a2000000000000000000000000000000000000000602082015250565b7f4e6f7420656e6f75676820746f6b656e73000000000000000000000000000000600082015250565b613a578161327a565b8114613a6257600080fd5b50565b613a6e8161328c565b8114613a7957600080fd5b50565b613a8581613298565b8114613a9057600080fd5b50565b613a9c816132e4565b8114613aa757600080fd5b5056fe4142434445464748494a4b4c4d4e4f505152535455565758595a6162636465666768696a6b6c6d6e6f707172737475767778797a303132333435363738392b2fa26469706673582212203ec1c9620ce7195c1c8b768c981e09eeb1504d7558a518c3d3d3a539b8ce595964736f6c63430008010033446f6e6520696e697469616c697a696e6720257320772f2048502025732c20696d67202573",
  "linkReferences": {},
  "deployedLinkReferences": {}
}